{
  "transactions": [
    {
      "hash": "0x2dbc7c4d50e0721dd50ac37568aa19bd0ffd8c52eda2c2c7f2694b25d6c5b610",
      "transactionType": "CALL",
      "contractName": null,
      "contractAddress": "0xc45d948467dd39278a456d4341c00c14f31300b2",
      "function": "createEscrow(address,bytes32,uint256)",
      "arguments": [
        "0x1d9e0A0E56e4F5BE0a85324D7120F51b70ABfdB6",
        "0x6e114d84795d72dc0f9bbd812e559a5fbeb473926779381594d82590dd1f7afb",
        "1783188520"
      ],
      "transaction": {
        "from": "0xd9d2db6688eaf09304155978b4b34998bff6c37c",
        "to": "0xc45d948467dd39278a456d4341c00c14f31300b2",
        "gas": "0x50fe5",
        "value": "0x38d7ea4c68000",
        "input": "0xc4f8adeb0000000000000000000000001d9e0a0e56e4f5be0a85324d7120f51b70abfdb66e114d84795d72dc0f9bbd812e559a5fbeb473926779381594d82590dd1f7afb000000000000000000000000000000000000000000000000000000006a494c28",
        "nonce": "0x0",
        "chainId": "0x3c8"
      },
      "additionalContracts": [],
      "isFixedGasLimit": false
    }
  ],
  "receipts": [
    {
      "status": "0x1",
      "cumulativeGasUsed": "0x3aa35",
      "logs": [
        {
          "address": "0xc45d948467dd39278a456d4341c00c14f31300b2",
          "topics": [
            "0x442d46bf972aadfedbef24263039339c2726bf34094ef3776cd80593b5aab378",
            "0x0000000000000000000000000000000000000000000000000000000000000000",
            "0x000000000000000000000000d9d2db6688eaf09304155978b4b34998bff6c37c",
            "0x0000000000000000000000001d9e0a0e56e4f5be0a85324d7120f51b70abfdb6"
          ],
          "data": "0x00000000000000000000000000000000000000000000000000038d7ea4c680006e114d84795d72dc0f9bbd812e559a5fbeb473926779381594d82590dd1f7afb000000000000000000000000000000000000000000000000000000006a494c28",
          "blockHash": "0xf1988c49be5063de94c3a3c340fdb90bedb6c064876f5be909224af5d1519d7a",
          "blockNumber": "0xe70e3b",
          "transactionHash": "0x2dbc7c4d50e0721dd50ac37568aa19bd0ffd8c52eda2c2c7f2694b25d6c5b610",
          "transactionIndex": "0x0",
          "logIndex": "0x0",
          "removed": false
        }
      ],
      "logsBloom": "0x00000000000000000000000000000000000000000000000020000000000000000000000004000000000000000000000000000000000000000000000000000000000000000000040000000000000000000000000000000000000000000000000000000000020000000000000000000804000000000000000000000000000000000080000000000000000000000000000000000000000000000000000000000100000000000000000000000000000000000040000000000000000000000000000020000000000000002000000000000000000000000000000000000000400020820000000000000000000000000000000000000000000000000000000000000000",
      "type": "0x2",
      "transactionHash": "0x2dbc7c4d50e0721dd50ac37568aa19bd0ffd8c52eda2c2c7f2694b25d6c5b610",
      "transactionIndex": "0x0",
      "blockHash": "0xf1988c49be5063de94c3a3c340fdb90bedb6c064876f5be909224af5d1519d7a",
      "blockNumber": "0xe70e3b",
      "gasUsed": "0x3aa35",
      "effectiveGasPrice": "0xb165100c4",
      "from": "0xd9d2db6688eaf09304155978b4b34998bff6c37c",
      "to": "0xc45d948467dd39278a456d4341c00c14f31300b2",
      "contractAddress": null
    }
  ],
  "libraries": [],
  "pending": [],
  "returns": {
    "escrowId": {
      "internal_type": "uint256",
      "value": "0"
    }
  },
  "timestamp": 1783187939979,
  "chain": 968,
  "commit": "499fce0"
}